:100000000C945A000C943D010C946C000C94A701C4
:100010000C946E010C946C000C946C000C946C00AD
:100020000C946C000C946C000C946C000C94CB0140
:100030000C946C000C946C000C946C000C946C0090
:100040000C946C000C946C000C946C000C946C0080
:100050000C946C000C946C000C946C000C946C0070
:100060000C946C000C946C000C946C000C946C0060
:100070000C946C000C946C000C946C000C946C0050
:100080000C946C000C946C000C946C000C946C0040
:100090000C946C000C946C000C946C000C946C0030
:1000A0000C946C000C946C000C946C000C946C0020
:1000B0000C946C0011241FBECFEFD8E0DEBFCDBF83
:1000C00021E0A0E0B1E001C01D92A230B207E1F74B
:1000D0000E94F3010C9409020C940000CF9382E774
:1000E0000E94F0008CE90E94200183E70E94F0004A
:1000F0000E943201C82F0E94170182E70E94F0007F
:1001000085EE0E9420010E941701CF3F11F40E944A
:10011000B50080E0CF9108958AB18C7F8AB980E0E4
:1001200008956A9A729880E00895299A83B182FBB3
:10013000882780F90895739A419A83EC99E0019792
:10014000F1F700C0000041984098739880E008954E
:10015000739A409A83EC99E00197F1F700C0000090
:1001600040984198739880E008955D9887EA91E6F9
:100170000197F1F700C000005D9A87EA91E60197C8
:10018000F1F700C0000080E008950E948C0080E23A
:100190008AB980E88AB980E48AB95D9A5F9A5E9AE2
:1001A00020983A98429A80E00895CF93DF930E9476
:1001B000950080930001189902C05D980DC093B11D
:1001C0009170C92F90E0D92F90E08C239D23892B2B
:1001D00011F05D9A01C05D9880E0DF91CF910895A4
:1001E00094EA9093BC00ECEBF0E090819923ECF75B
:1001F0009091B900987F983011F09031A1F48093DC
:10020000BB0084E88093BC00ECEBF0E080818823A5
:10021000ECF79091B900987F983139F081E09034F3
:1002200029F480E0089581E0089580E0089584E94C
:100230008093BC00ECEBF0E0808184FDFDCF08955D
:100240008093BB0084E88093BC00ECEBF0E08081FD
:100250008823ECF79091B900987F81E0983209F4F7
:1002600080E0089584E88093BC00ECEBF0E08081AE
:100270008823ECF78091BB0008951F920F920FB670
:100280000F9211242F933F934F935F936F937F931C
:100290008F939F93AF93BF93EF93FF9381E08093EE
:1002A00001010E949B000E946E0082E70E94F00004
:1002B00085EE0E9420010E941701FF91EF91BF91EE
:1002C000AF919F918F917F916F915F914F913F91EE
:1002D0002F910F900FBE0F901F9018951F920F92A5
:1002E0000FB60F9211242F933F934F935F936F9309
:1002F0007F938F939F93AF93BF93EF93FF93329925
:1003000015C00E949B002FE986E891E021508040B3
:100310009040E1F700C000000E94A80087E893E148
:100320000197F1F700C000000E94B500FF91EF9126
:10033000BF91AF919F918F917F916F915F914F91FD
:100340003F912F910F900FBE0F901F9018951F9205
:100350000F920FB60F9211242F933F934F935F93F9
:100360006F937F938F939F93AF93BF93EF93FF937D
:100370000E94D500FF91EF91BF91AF919F918F9116
:100380007F916F915F914F913F912F910F900FBE91
:100390000F901F9018951F920F920FB60F92112475
:1003A0002F933F934F935F936F937F938F939F937D
:1003B000AF93BF93EF93FF930E94A80010920101A7
:1003C0000E94B500FF91EF91BF91AF919F918F91E6
:1003D0007F916F915F914F913F912F910F900FBE41
:1003E0000F901F9018950E94C500579A569A559ADB
:1003F0008BB1806E8BB90E94910083B7806883BFF8
:1004000083B7816083BF889583B78E7F83BF7894DD
:06041000FFCFF894FFCFBE
:00000001FF
