S01200004E6562756C6120302E312E737265630C
S11300000C945A000C94B5010C946C000C942602C8
S11300100C94ED010C946C000C946C000C946C002A
S11300200C946C000C946C000C946C000C944A02BC
S11300300C946C000C946C000C946C000C946C008C
S11300400C946C000C946C000C946C000C946C007C
S11300500C946C000C946C000C946C000C946C006C
S11300600C946C000C946C000C946C000C946C005C
S11300700C946C000C946C000C946C000C946C004C
S11300800C946C000C946C000C946C000C946C003C
S11300900C946C000C946C000C946C000C946C002C
S11300A00C946C000C946C000C946C000C946C001C
S11300B00C946C0011241FBECFEFD8E0DEBFCDBF7F
S11300C021E0A0E0B1E001C01D92A130B207E1F748
S11300D00E946E020C948B020C940000CF93C62FE6
S11300E00E9493018C2F0E94930180E0CF91089588
S11300F0CF9382E70E9463018CE90E94930183E716
S11301000E9463010E94A501C82F0E948A01C111A7
S113011003C00E94100102C00E94490180E0CF91F7
S1130120089582E70E94630161E080E90E946E0005
S11301300E948A0182E70E94630160E08FE90E94C5
S11301406E000E948A0182E70E9463016CE08FE8DE
S11301500E946E000E948A0182E70E9463016FE59B
S11301608CE80E946E000E948A0182E70E9463016B
S11301706CE78EE80E946E000E948A0182E70E946A
S1130180630169E089E80E946E000E948A0182E7A7
S11301900E9463016EEF8BE80E946E000E948A0148
S11301A082E70E94630160E083E80E946E000E947F
S11301B08A0182E70E94630185EE0E9493010E94F6
S11301C08A0182E70E94630165E280E80E946E0072
S11301D00E948A0180E008956A9A729A80E00895E4
S11301E0299A83B182FB882780F90895739A419AEA
S11301F083EC99E00197F1F700C000004198409822
S1130200739880E00895739A409A83EC99E001977B
S1130210F1F700C0000040984198739880E0089579
S11302205E9883ED90E30197F1F700C000005E9AB9
S113023083ED90E30197F1F700C000005E9883ED31
S113024090E30197F1F700C000005E9A83ED90E31C
S11302500197F1F700C0000080E00895CF93DF9389
S11302600E94F00080930001189902C05D980DC0AF
S113027093B19170C92F90E0D92F90E08C239D23E6
S1130280892B11F05D9A01C05D9880E0DF91CF91D8
S113029008955F9883ED90E30197F1F700C00000A3
S11302A05F9A83ED90E30197F1F700C0000080E0CE
S11302B008951092B90084E08093B80084EA809392
S11302C0BC0080E0089594EA9093BC00ECEBF0E06D
S11302D090819923ECF79091B900987F983011F0B0
S11302E09031A1F48093BB0084E88093BC00ECEBD4
S11302F0F0E080818823ECF79091B900987F9831E1
S113030039F081E0903429F480E0089581E0089583
S113031080E0089584E98093BC00ECEBF0E08081F8
S113032084FDFDCF08958093BB0084E88093BC00D6
S1130330ECEBF0E080818823ECF79091B900987F92
S113034081E0983209F480E0089584E88093BC0049
S1130350ECEBF0E080818823ECF78091BB000895FA
S113036010926900E89A80E008951F920F920FB6E8
S11303700F9211242F933F934F935F936F937F9327
S11303808F939F93AF93BF93EF93FF930E94780053
S113039082E70E94630185EE0E9493010E948A0114
S11303A0FF91EF91BF91AF919F918F917F916F9149
S11303B05F914F913F912F910F900FBE0F901F901F
S11303C01895E8E6F0E0808183608083ECE6F0E055
S11303D080818560808380E008951F920F920FB61C
S11303E00F9211242F933F934F935F936F937F93B7
S11303F08F939F93AF93BF93EF93FF93329915C05D
S11304000E94F6002FE986E891E021508040904058
S1130410E1F700C000000E94030187E893E101971F
S1130420F1F700C000000E941001FF91EF91BF910D
S1130430AF919F918F917F916F915F914F913F9178
S11304402F910F900FBE0F901F9018951F920F922F
S11304500FB60F9211242F933F934F935F936F9393
S11304607F938F939F93AF93BF93EF93FF930E94D8
S11304702E01FF91EF91BF91AF919F918F917F9149
S11304806F915F914F913F912F910F900FBE0F90FD
S11304901F9018951F920F920FB60F9211242F934D
S11304A03F934F935F936F937F938F939F93AF93F8
S11304B0BF93EF93FF930E940301FF91EF91BF91CC
S11304C0AF919F918F917F916F915F914F913F91E8
S11304D02F910F900FBE0F901F901895579A559A11
S11304E0569A6B9A3A98429A2098289A5F9A5E9AFA
S11304F05D9A389A399A409841980E94EC000E947B
S1130500E1010E94B00152985A9A0E9459010E9436
S10D051091007894FFCFF894FFCF18
S9030000FC
