:100000000C945A000C948D010C946C000C94F70124
:100010000C94BE010C946C000C946C000C946C005D
:100020000C946C000C946C000C946C000C941B02EF
:100030000C946C000C946C000C946C000C946C0090
:100040000C946C000C946C000C946C000C946C0080
:100050000C946C000C946C000C946C000C946C0070
:100060000C946C000C946C000C946C000C946C0060
:100070000C946C000C946C000C946C000C946C0050
:100080000C946C000C946C000C946C000C946C0040
:100090000C946C000C946C000C946C000C946C0030
:1000A0000C946C000C946C000C946C000C946C0020
:1000B0000C946C0011241FBECFEFD8E0DEBFCDBF83
:1000C00021E0A0E0B1E001C01D92A230B207E1F74B
:1000D0000E9443020C944E020C940000CF9382E7DE
:1000E0000E9440018CE90E94700183E70E94400158
:1000F0000E948201C82F0E94670182E70E9440018E
:1001000085EE0E9470010E946701CF3F11F40E94AA
:10011000B00080E0CF9108956A9A729A80E00895C5
:10012000299A83B182FB882780F90895739A419AAE
:1001300083EC99E00197F1F700C0000041984098E6
:10014000739880E00895739A409A83EC99E0019740
:10015000F1F700C0000040984198739880E008953E
:100160005D982FEF80E792E0215080409040E1F7CA
:1001700000C000005D9A2FEF80E792E021508040A0
:100180009040E1F700C0000080E008955D982FEFF7
:1001900080E792E0215080409040E1F700C00000ED
:1001A0005D9A5F982FEF80E792E021508040904069
:1001B000E1F700C000005F9A5E982FEF80E792E0C1
:1001C000215080409040E1F700C000005E9A8BB162
:1001D0008F798BB92FEF80E792E0215080409040DB
:1001E000E1F700C000008BB180668BB98BB18072E3
:1001F0008BB92FEF80E792E0215080409040E1F7EB
:1002000000C000008BB1806A8BB98BB18F738BB942
:100210002FEF80E792E0215080409040E1F700C04E
:1002200000008BB1806C8BB98BB18F758BB92FEFC0
:1002300080E792E0215080409040E1F700C000004C
:100240008BB1806A8BB980E00895CF93DF930E94D1
:10025000900080930001189902C05D980DC093B181
:100260009170C92F90E0D92F90E08C239D23892B8A
:1002700011F05D9A01C05D9880E0DF91CF91089503
:1002800094EA9093BC00ECEBF0E090819923ECF7BA
:100290009091B900987F983011F09031A1F480933B
:1002A000BB0084E88093BC00ECEBF0E08081882305
:1002B000ECF79091B900987F983139F081E0903453
:1002C00029F480E0089581E0089580E0089584E9AC
:1002D0008093BC00ECEBF0E0808184FDFDCF0895BD
:1002E0008093BB0084E88093BC00ECEBF0E080815D
:1002F0008823ECF79091B900987F81E0983209F457
:1003000080E0089584E88093BC00ECEBF0E080810D
:100310008823ECF78091BB0008951F920F920FB6CF
:100320000F9211242F933F934F935F936F937F937B
:100330008F939F93AF93BF93EF93FF9381E080934D
:1003400001010E9496000E946E0082E70E94400117
:1003500085EE0E9470010E946701FF91EF91BF91AD
:10036000AF919F918F917F916F915F914F913F914D
:100370002F910F900FBE0F901F9018951F920F9204
:100380000FB60F9211242F933F934F935F936F9368
:100390007F938F939F93AF93BF93EF93FF93329984
:1003A00015C00E9496002FE986E891E02150804018
:1003B0009040E1F700C000000E94A30087E893E1AD
:1003C0000197F1F700C000000E94B000FF91EF918B
:1003D000BF91AF919F918F917F916F915F914F915D
:1003E0003F912F910F900FBE0F901F9018951F9265
:1003F0000F920FB60F9211242F933F934F935F9359
:100400006F937F938F939F93AF93BF93EF93FF93DC
:100410000E942501FF91EF91BF91AF919F918F9124
:100420007F916F915F914F913F912F910F900FBEF0
:100430000F901F9018951F920F920FB60F921124D4
:100440002F933F934F935F936F937F938F939F93DC
:10045000AF93BF93EF93FF930E94A300109201010B
:100460000E94B000FF91EF91BF91AF919F918F914A
:100470007F916F915F914F913F912F910F900FBEA0
:100480000F901F901895579A569A559A8BB1806E77
:100490008BB90E948C000E94C600FDCFF894FFCF5C
:00000001FF
