S01200004E6562756C6120302E312E737265630C
S11300000C945A000C9489010C946C000C94EB0130
S11300100C94C6010C946C000C946C000C946C0051
S11300200C946C000C946C000C946C000C94F50112
S11300300C946C000C946C000C946C000C946C008C
S11300400C946C000C946C000C946C000C946C007C
S11300500C946C000C946C000C946C000C946C006C
S11300600C946C000C946C000C946C000C946C005C
S11300700C946C000C946C000C946C000C946C004C
S11300800C946C000C946C000C946C000C946C003C
S11300900C946C000C946C000C946C000C946C002C
S11300A00C946C000C946C000C946C000C946C001C
S11300B00C946C0011241FBECFEFD8E0DEBFCDBF7F
S11300C021E0A0E0B1E001C01D92A130B207E1F748
S11300D00E941D020C942D020C940000CF9382E721
S11300E00E943C018CE90E946C0183E70E943C0160
S11300F00E947E01C82F0E94630182E70E943C0196
S113010085EE0E946C010E946301CF3F11F40E94AE
S1130110C70080E0CF91089521988AB18DB1299AC2
S11301205C9A709A80E008950E948C0080E28AB9FB
S113013080E88AB980E48AB95D9A5F9A5E9A84B14C
S11301408A7F84B985B1856085B93A98429A80E0FE
S113015008956A9A729A80E00895739A419A83EC9A
S113016099E00197F1F700C0000041984098739816
S113017080E00895739A409A83EC99E00197F1F72F
S113018000C0000040984198739880E008955D98FD
S11301902FEF80E792E0215080409040E1F700C0CB
S11301A000005D9A2FEF80E792E02150804090405C
S11301B0E1F700C0000080E008955D982FE58AEE25
S11301C090E0215080409040E1F700C000005D9A2B
S11301D05F982FE58AEE90E0215080409040E1F74F
S11301E000C000005F9A5E982FE58AEE90E02150EF
S11301F080409040E1F700C000005E9A8BB18F7997
S11302008BB92FE58AEE90E0215080409040E1F7D1
S113021000C000008BB180668BB98BB180728BB942
S11302202FE58AEE90E0215080409040E1F700C035
S113023000008BB1806A8BB98BB18F738BB92FE5BA
S11302408AEE90E0215080409040E1F700C0000029
S11302508BB1806C8BB98BB18F758BB92FE58AEE1E
S113026090E0215080409040E1F700C000008BB145
S1130270806A8BB980E0089594EA9093BC00ECEB1B
S1130280F0E090819923ECF79091B900987F983031
S113029011F09031A1F48093BB0084E88093BC00FA
S11302A0ECEBF0E080818823ECF79091B900987F23
S11302B0983139F081E0903429F480E0089581E0A8
S11302C0089580E0089584E98093BC00ECEBF0E0AD
S11302D0808184FDFDCF08958093BB0084E88093E2
S11302E0BC00ECEBF0E080818823ECF79091B9003E
S11302F0987F81E0983209F480E0089584E880933F
S1130300BC00ECEBF0E080818823ECF78091BB002B
S113031008951F920F920FB60F9211242F933F93BB
S11303204F935F936F937F938F939F93AF93BF93F9
S1130330EF93FF9381E0809300010E94AD000E943F
S11303406E0082E70E943C0185EE0E946C010E94CF
S11303506301FF91EF91BF91AF919F918F917F9135
S11303606F915F914F913F912F910F900FBE0F901E
S11303701F901895E8E6F0E0808183608083ECE6C6
S1130380F0E080818560808380E008951F920F9261
S11303900FB60F9211242F933F934F935F936F9354
S11303A07F938F939F93AF93BF93EF93FF93329B6E
S11303B00E94DD00FF91EF91BF91AF919F918F91CA
S11303C07F916F915F914F913F912F910F900FBE4D
S11303D00F901F9018951F920F920FB60F92112431
S11303E00F900FBE0F901F9018951F920F920FB68B
S11303F00F9211242F933F934F935F936F937F93A7
S11304008F939F93AF93BF93EF93FF930E94BA0090
S1130410109200010E94C700FF91EF91BF91AF912C
S11304209F918F917F916F915F914F913F912F9108
S11304300F900FBE0F901F9018950E949400579A2A
S1130440569A559A8BB1806E8BB90E94A9000E946E
S1110450BA0178940E94C700FDCFF894FFCF44
S9030000FC
