S01200004E6562756C6120302E312E737265630C
S11300000C945A000C946C000C946C000C946C00CE
S11300100C94C7000C946C000C946C000C946C0051
S11300200C946C000C946C000C946C000C946C009C
S11300300C946C000C946C000C946C000C946C008C
S11300400C946C000C946C000C946C000C946C007C
S11300500C946C000C946C000C946C000C946C006C
S11300600C946C000C946C000C946C000C946C005C
S11300700C946C000C946C000C946C000C946C004C
S11300800C946C000C946C000C946C000C946C003C
S11300900C946C000C946C000C946C000C946C002C
S11300A00C946C000C946C000C946C000C946C001C
S11300B00C946C0011241FBECFEFD8E0DEBFCDBF7F
S11300C021E0A0E0B1E001C01D92A030B207E1F749
S11300D00E94EB000C94FB000C9400006A9A729A44
S11300E080E00895419A87E893E10197F1F700C011
S11300F00000419880E008955D9887EA91E60197B1
S1130100F1F700C000005D9A5F9887EA91E60197D5
S1130110F1F700C000005F9A5E9887EA91E60197C4
S1130120F1F700C000005E9A8BB18F798BB987EA32
S113013091E60197F1F700C000008BB180668BB99E
S11301408BB180728BB987EA91E60197F1F700C011
S113015000008BB1806A8BB98BB18F738BB987EA3E
S113016091E60197F1F700C000008BB1806C8BB968
S113017080E00895E8E6F0E0808182608083ECE628
S1130180F0E0808184608083789480E008951F92F9
S11301900F920FB60F9211242F933F934F935F93B7
S11301A06F937F938F939F93AF93BF93EF93FF933B
S11301B00E947C00FF91EF91BF91AF919F918F912D
S11301C07F916F915F914F913F912F910F900FBE4F
S11301D00F901F901895579A559A569A6B9A3A9879
S11301E0429A739A389A399A0E946E000E94BA0011
S10D01F00E947200FFCFF894FFCFC5
S9030000FC
