:100000000C945A000C9469010C946C000C94CB0174
:100010000C94A6010C946C000C946C000C946C0075
:100020000C946C000C946C000C946C000C94E70124
:100030000C946C000C946C000C946C000C946C0090
:100040000C946C000C946C000C946C000C946C0080
:100050000C946C000C946C000C946C000C946C0070
:100060000C946C000C946C000C946C000C946C0060
:100070000C946C000C946C000C946C000C946C0050
:100080000C946C000C946C000C946C000C946C0040
:100090000C946C000C946C000C946C000C946C0030
:1000A0000C946C000C946C000C946C000C946C0020
:1000B0000C946C0011241FBECFEFD8E0DEBFCDBF83
:1000C00021E0A0E0B1E001C01D92A130B207E1F74C
:1000D0000E940F020C9424020C940000CF9382E73C
:1000E0000E941C018CE90E944C0183E70E941C01C4
:1000F0000E945E01C82F0E94430182E70E941C01FA
:1001000085EE0E944C010E944301CF3F11F40E94F2
:100110009D0080E0CF9108956A9A729A80E00895D8
:10012000739A419A83EC99E00197F1F700C00000BF
:1001300041984098739880E008955D982FEF80E78C
:1001400092E0215080409040E1F700C000005D9AAD
:100150002FEF80E792E0215080409040E1F700C00F
:10016000000080E008955D982FE58AEE90E0215030
:1001700080409040E1F700C000005D9A5F982FE555
:100180008AEE90E0215080409040E1F700C00000EE
:100190005F9A5E982FE58AEE90E021508040904073
:1001A000E1F700C000005E9A8BB18F798BB92FE523
:1001B0008AEE90E0215080409040E1F700C00000BE
:1001C0008BB180668BB98BB180728BB92FE58AEECB
:1001D00090E0215080409040E1F700C000008BB1DA
:1001E000806A8BB98BB18F738BB92FE58AEE90E063
:1001F000215080409040E1F700C000008BB1806C3E
:100200008BB98BB18F758BB92FE58AEE90E02150B9
:1002100080409040E1F700C000008BB1806A8BB94C
:1002200080E008951092B90084E08093B80084EAD9
:100230008093BC0080E0089594EA9093BC00ECEBBE
:10024000F0E090819923ECF79091B900987F983075
:1002500011F09031A1F48093BB0084E88093BC003E
:10026000ECEBF0E080818823ECF79091B900987F67
:10027000983139F081E0903429F480E0089581E0EC
:10028000089580E0089584E98093BC00ECEBF0E0F1
:10029000808184FDFDCF08958093BB0084E8809326
:1002A000BC00ECEBF0E080818823ECF79091B90082
:1002B000987F81E0983209F480E0089584E8809383
:1002C000BC00ECEBF0E080818823ECF78091BB0070
:1002D00008951F920F920FB60F9211242F933F9300
:1002E0004F935F936F937F938F939F93AF93BF933E
:1002F000EF93FF9381E0809300010E9490000E94A1
:100300006E0082E70E941C0185EE0E944C010E9453
:100310004301FF91EF91BF91AF919F918F917F9199
:100320006F915F914F913F912F910F900FBE0F9062
:100330001F901895E8E6F0E0808183608083ECE60A
:10034000F0E080818560808380E008951F920F92A5
:100350000FB60F9211242F933F934F935F936F9398
:100360007F938F939F93AF93BF93EF93FF93329BB2
:100370000E94B300FF91EF91BF91AF919F918F9138
:100380007F916F915F914F913F912F910F900FBE91
:100390000F901F9018951F920F920FB60F92112475
:1003A0000F900FBE0F901F9018951092800025E0BF
:1003B0002093810026E020936F0010928500109218
:1003C0008400909389008093880080E008951F92B4
:1003D0000F920FB60F9211242F933F934F935F9379
:1003E0006F937F938F939F93AF93BF93EF93FF93FD
:1003F0000E94B3001092850010928400FF91EF914B
:10040000BF91AF919F918F917F916F915F914F912C
:100410003F912F910F900FBE0F901F901895579AF4
:10042000569A559A8BB1806E8BB90E948C000E94AF
:100430009A0180ED97E00E94D50178940E94120104
:0C04400080E60E941C01FFCFF894FFCF63
:00000001FF
