:100000000C945A000C9479010C946C000C94E0014F
:100010000C94BB010C94EA010C946C000C946C00E1
:100020000C946C000C946C000C946C000C942002EA
:100030000C946C000C946C000C946C000C946C0090
:100040000C946C000C946C000C946C000C946C0080
:100050000C946C000C946C000C946C000C946C0070
:100060000C946C000C946C000C946C000C946C0060
:100070000C946C000C946C000C946C000C946C0050
:100080000C946C000C946C000C946C000C946C0040
:100090000C946C000C946C000C946C000C946C0030
:1000A0000C946C000C946C000C946C000C946C0020
:1000B0000C946C0011241FBECFEFD8E0DEBFCDBF83
:1000C00021E0A0E0B1E001C01D92A130B207E1F74C
:1000D0000E9448020C9495020C940000CF9382E792
:1000E0000E942C018CE90E945C0183E70E942C0194
:1000F0000E946E01C82F0E94530182E70E942C01CA
:1001000085EE0E945C010E945301CF3F11F40E94D2
:10011000B70080E0CF91089521988AB18DB1299AD6
:100120005C9A709A80E008950E948C00559A579AC4
:10013000569A5D9A5F9A5E9A84B18A7F84B985B136
:10014000856085B93A98429A80E008956A9A729AD1
:1001500080E00895739A419A83EC99E00197F1F752
:1001600000C0000041984098739880E008955D9821
:100170002FEF80E792E0215080409040E1F700C0EF
:1001800000005D9A2FEF80E792E021508040904080
:10019000E1F700C0000080E008955D982FE58AEE49
:1001A00090E0215080409040E1F700C000005D9A4F
:1001B0005F982FE58AEE90E0215080409040E1F773
:1001C00000C000005F9A5E982FE58AEE90E0215013
:1001D00080409040E1F700C000005E9A8BB18F79BB
:1001E0008BB92FE58AEE90E0215080409040E1F7F6
:1001F00000C000008BB180668BB98BB180728BB967
:100200002FE58AEE90E0215080409040E1F700C059
:1002100000008BB1806A8BB98BB18F738BB92FE5DE
:100220008AEE90E0215080409040E1F700C000004D
:100230008BB1806C8BB98BB18F758BB92FE58AEE42
:1002400090E0215080409040E1F700C000008BB169
:10025000806A8BB980E0089594EA9093BC00ECEB3F
:10026000F0E090819923ECF79091B900987F983055
:1002700011F09031A1F48093BB0084E88093BC001E
:10028000ECEBF0E080818823ECF79091B900987F47
:10029000983139F081E0903429F480E0089581E0CC
:1002A000089580E0089584E98093BC00ECEBF0E0D1
:1002B000808184FDFDCF08958093BB0084E8809306
:1002C000BC00ECEBF0E080818823ECF79091B90062
:1002D000987F81E0983209F480E0089584E8809363
:1002E000BC00ECEBF0E080818823ECF78091BB0050
:1002F00008951F920F920FB60F9211242F933F93E0
:100300004F935F936F937F938F939F93AF93BF931D
:10031000EF93FF9381E0809300010E94AA000E9466
:100320006E0082E70E942C0185EE0E945C010E9413
:100330005301FF91EF91BF91AF919F918F917F9169
:100340006F915F914F913F912F910F900FBE0F9042
:100350001F901895E8E6F0E0808183608083ECE6EA
:10036000F0E0808185608083EDE6F0E0808182604E
:10037000808380E008951F920F920FB60F92112490
:100380002F933F934F935F936F937F938F939F939D
:10039000AF93BF93EF93FF93329B0E94CD00FF91E9
:1003A000EF91BF91AF919F918F917F916F915F91ED
:1003B0004F913F912F910F900FBE0F901F90189566
:1003C0001F920F920FB60F9211240F900FBE0F9035
:1003D0001F9018951F920F920FB60F9211242F9312
:1003E0003F934F935F936F937F938F939F93AF93BD
:1003F000BF93EF93FF930E94B700FF91EF91BF91DE
:10040000AF919F918F917F916F915F914F913F91AC
:100410002F910F900FBE0F901F9018951092800093
:1004200025E02093810026E020936F001092850044
:1004300010928400909389008093880080E0089552
:100440001F920F920FB60F9211242F933F934F9349
:100450005F936F937F938F939F93AF93BF93EF932C
:10046000FF930E94CD001092850010928400FF91AE
:10047000EF91BF91AF919F918F917F916F915F911C
:100480004F913F912F910F900FBE0F901F90189595
:100490000E9494000E94A6000E94AA0180ED97E0AD
:1004A0000E940E0281E00E946F027894FFCF1F939A
:1004B000CF93DF93162FD42FC22F0E942C01812FB0
:1004C0000E945C018D2F0E945C018C2F0E945C01B8
:1004D0000E94530180E0DF91CF911F91089522E0A7
:1004E00043E860E080EC0E94570224E14FE263E0C1
:1004F00080EC0E94570222EF4EE164E080EC0E9403
:10050000570220E040EA65E080EC0E94570220E0BC
:1005100040EF66E080EC0E94570223E04DE568E082
:0E05200080EC0E94570280E00895F894FFCF0F
:00000001FF
