S01200004E6562756C6120302E312E737265630C
S11300000C9434000C9497000C9446000C94460015
S11300100C9446000C9446000C9446000C94460044
S11300200C9446000C9446000C9446000C94460034
S11300300C9446000C9446000C9446000C94460024
S11300400C9446000C9446000C9446000C94460014
S11300500C9446000C9446000C9446000C94460004
S11300600C9446000C94460011241FBECFEFD8E038
S1130070DEBFCDBF21E0A0E0B1E001C01D92A03001
S1130080B207E1F70E94A3000C94AE000C940000A8
S113009082E70E945E0082E90E94850083E70E9455
S11300A05E008091BB0008951092B90084E08093B3
S11300B0B80084EA8093BC0080E0089594EA9093A9
S11300C0BC00ECEBF0E090819923ECF79091B9003F
S11300D0987F983011F09031A1F48093BB0084E8AC
S11300E08093BC00ECEBF0E080818823ECF79091E6
S11300F0B900987F983139F081E0903429F480E098
S1130100089581E0089580E008958093BB0084E819
S11301108093BC00ECEBF0E080818823ECF79091B5
S1130120B900987F81E0983209F480E008951F9225
S11301300F920FB60F9211242A9878940F900FBE45
S11301400F901F90189587B1836087B90E9454005F
S11301500E944800409A80E090E00895F894FFCF10
S9030000FC
