:100000000C945A000C9487010C946C000C94F10130
:100010000C94B8010C946C000C946C000C946C0063
:100020000C946C000C946C000C946C000C941502F5
:100030000C946C000C946C000C946C000C946C0090
:100040000C946C000C946C000C946C000C946C0080
:100050000C946C000C946C000C946C000C946C0070
:100060000C946C000C946C000C946C000C946C0060
:100070000C946C000C946C000C946C000C946C0050
:100080000C946C000C946C000C946C000C946C0040
:100090000C946C000C946C000C946C000C946C0030
:1000A0000C946C000C946C000C946C000C946C0020
:1000B0000C946C0011241FBECFEFD8E0DEBFCDBF83
:1000C00021E0A0E0B1E001C01D92A230B207E1F74B
:1000D0000E943D020C9448020C940000CF9382E7EA
:1000E0000E943A018CE90E946A0183E70E943A016A
:1000F0000E947C01C82F0E94610182E70E943A01A0
:1001000085EE0E946A010E946101CF3F11F40E94B6
:10011000B00080E0CF9108956A9A729880E00895C7
:10012000299A83B182FB882780F90895739A419AAE
:1001300083EC99E00197F1F700C0000041984098E6
:10014000739880E00895739A409A83EC99E0019740
:10015000F1F700C0000040984198739880E008953E
:100160005D9887EA91E60197F1F700C000005D9A7B
:1001700087EA91E60197F1F700C0000080E008955A
:100180005D982FE58AEE90E0215080409040E1F7A5
:1001900000C000005D9A5F982FE58AEE90E0215044
:1001A00080409040E1F700C000005F9A5E982FE524
:1001B0008AEE90E0215080409040E1F700C00000BE
:1001C0005E9A8BB18F798BB92FE58AEE90E0215042
:1001D00080409040E1F700C000008BB180668BB991
:1001E0008BB180728BB92FE58AEE90E02150804070
:1001F0009040E1F700C000008BB1806A8BB98BB1F1
:100200008F738BB92FE58AEE90E0215080409040AB
:10021000E1F700C000008BB1806C8BB98BB18F759A
:100220008BB92FE58AEE90E0215080409040E1F7B5
:1002300000C000008BB1806A8BB980E00895CF9335
:10024000DF930E94900080930001189902C05D988E
:100250000DC093B19170C92F90E0D92F90E08C23FD
:100260009D23892B11F05D9A01C05D9880E0DF919C
:10027000CF91089594EA9093BC00ECEBF0E090816C
:100280009923ECF79091B900987F983011F0903154
:10029000A1F48093BB0084E88093BC00ECEBF0E019
:1002A00080818823ECF79091B900987F983139F0DC
:1002B00081E0903429F480E0089581E0089580E0A1
:1002C000089584E98093BC00ECEBF0E0808184FD2C
:1002D000FDCF08958093BB0084E88093BC00ECEBD5
:1002E000F0E080818823ECF79091B900987F81E05D
:1002F000983209F480E0089584E88093BC00ECEB28
:10030000F0E080818823ECF78091BB0008951F9274
:100310000F920FB60F9211242F933F934F935F9339
:100320006F937F938F939F93AF93BF93EF93FF93BD
:1003300081E0809301010E9496000E946E0082E796
:100340000E943A0185EE0E946A010E946101FF91BC
:10035000EF91BF91AF919F918F917F916F915F913D
:100360004F913F912F910F900FBE0F901F901895B6
:100370001F920F920FB60F9211242F933F934F931A
:100380005F936F937F938F939F93AF93BF93EF93FD
:10039000FF93329915C00E9496002FE986E891E0FC
:1003A000215080409040E1F700C000000E94A3006F
:1003B00087E893E10197F1F700C000000E94B000C8
:1003C000FF91EF91BF91AF919F918F917F916F912D
:1003D0005F914F913F912F910F900FBE0F901F9003
:1003E00018951F920F920FB60F9211242F933F93DF
:1003F0004F935F936F937F938F939F93AF93BF932D
:10040000EF93FF930E941F01FF91EF91BF91AF9176
:100410009F918F917F916F915F914F913F912F911C
:100420000F900FBE0F901F9018951F920F920FB64E
:100430000F9211242F933F934F935F936F937F936A
:100440008F939F93AF93BF93EF93FF930E94A3006B
:10045000109201010E94B000FF91EF91BF91AF9106
:100460009F918F917F916F915F914F913F912F91CC
:100470000F900FBE0F901F901895579A569A559A45
:100480008BB1806E8BB90E948C000E94C000FDCFA2
:04049000F894FFCF0E
:00000001FF
