S01200004E6562756C6120302E312E737265630C
S11300000C945A000C94B8010C946C000C940E02DD
S11300100C94E9010C9418020C946C000C946C0080
S11300200C946C000C946C000C946C000C944E02B8
S11300300C946C000C946C000C946C000C946C008C
S11300400C946C000C946C000C946C000C946C007C
S11300500C946C000C946C000C946C000C946C006C
S11300600C946C000C946C000C946C000C946C005C
S11300700C946C000C946C000C946C000C946C004C
S11300800C946C000C946C000C946C000C946C003C
S11300900C946C000C946C000C946C000C946C002C
S11300A00C946C000C946C000C946C000C946C001C
S11300B00C946C0011241FBECFEFD8E0DEBFCDBF7F
S11300C021E0A0E0B1E001C01D92A230B207E1F747
S11300D00E9476020C9483020C940000CF9382E772
S11300E00E946B018CE90E949B0183E70E946B01D3
S11300F00E94AD01C82F0E94920182E70E946B0109
S113010085EE0E949B010E949201CF3F11F40E9450
S1130110B70080E0CF91089521988AB18DB1299AD2
S11301205C9A709A80E008950E948C00559A579AC0
S1130130569A5D9A5F9A5E9A84B18A7F84B985B132
S1130140856085B93A98429A80E008956A9A729ACD
S113015080E00895739A419A83EC99E00197F1F74E
S113016000C0000041984098739880E008955D981D
S11301702FEF80E792E0215080409040E1F700C0EB
S113018000005D9A2FEF80E792E02150804090407C
S1130190E1F700C0000080E008955D982FE58AEE45
S11301A090E0215080409040E1F700C000005D9A4B
S11301B05F982FE58AEE90E0215080409040E1F76F
S11301C000C000005F9A5E982FE58AEE90E021500F
S11301D080409040E1F700C000005E9A8BB18F79B7
S11301E08BB92FE58AEE90E0215080409040E1F7F2
S11301F000C000008BB180668BB98BB180728BB963
S11302002FE58AEE90E0215080409040E1F700C055
S113021000008BB1806A8BB98BB18F738BB92FE5DA
S11302208AEE90E0215080409040E1F700C0000049
S11302308BB1806C8BB98BB18F758BB92FE58AEE3E
S113024090E0215080409040E1F700C000008BB165
S1130250806A8BB980E00895739A719880E008955C
S11302608130B9F50E942C01109200012E9883ED83
S113027090E30197F1F700C000002F9A9FE72AE16D
S113028086E0915020408040E1F700C000002F98A4
S113029083ED90E30197F1F700C000002E9A9FE7E9
S11302A02AE186E0915020408040E1F700C0000040
S11302B0809100018F5F809300018431B8F27398BC
S11302C09FE32DE083E0915020408040E1F700C09F
S11302D0000080E0089594EA9093BC00ECEBF0E019
S11302E090819923ECF79091B900987F983011F0A0
S11302F09031A1F48093BB0084E88093BC00ECEBC4
S1130300F0E080818823ECF79091B900987F9831D0
S113031039F081E0903429F480E0089581E0089573
S113032080E0089584E98093BC00ECEBF0E08081E8
S113033084FDFDCF08958093BB0084E88093BC00C6
S1130340ECEBF0E080818823ECF79091B900987F82
S113035081E0983209F480E0089584E88093BC0039
S1130360ECEBF0E080818823ECF78091BB000895EA
S11303701F920F920FB60F9211242F933F934F9316
S11303805F936F937F938F939F93AF93BF93EF93F9
S1130390FF9381E0809301010E94AA000E946E00F5
S11303A082E70E946B0185EE0E949B010E949201EC
S11303B0FF91EF91BF91AF919F918F917F916F9139
S11303C05F914F913F912F910F900FBE0F901F900F
S11303D018951F920F920FB60F9211242F933F93EB
S11303E04F935F936F937F938F939F93AF93BF9339
S11303F0EF93FF93329B0E94CD00FF91EF91BF9149
S1130400AF919F918F917F916F915F914F913F91A8
S11304102F910F900FBE0F901F9018951F920F925F
S11304200FB60F9211240F900FBE0F901F901895C6
S11304301F920F920FB60F9211242F933F934F9355
S11304405F936F937F938F939F93AF93BF93EF9338
S1130450FF930E94B700FF91EF91BF91AF919F91DD
S11304608F917F916F915F914F913F912F910F9059
S11304700FBE0F901F9018951092800025E02093D6
S1130480810026E020936F00109285001092840072
S1130490909389008093880080E008951F920F92C2
S11304A00FB60F9211242F933F934F935F936F9343
S11304B07F938F939F93AF93BF93EF93FF930E9488
S11304C0CD001092850010928400FF91EF91BF91AE
S11304D0AF919F918F917F916F915F914F913F91D8
S11304E02F910F900FBE0F901F9018950E949400AB
S11304F00E94A60080ED97E00E943C02789481E07F
S10D05000E943001FCCFF894FFCFF5
S9030000FC
