:100000000C945A000C9423010C946C000C948D01F8
:100010000C9454010C946C000C946C000C946C00C7
:100020000C946C000C946C000C946C000C94970174
:100030000C946C000C946C000C946C000C946C0090
:100040000C946C000C946C000C946C000C946C0080
:100050000C946C000C946C000C946C000C946C0070
:100060000C946C000C946C000C946C000C946C0060
:100070000C946C000C946C000C946C000C946C0050
:100080000C946C000C946C000C946C000C946C0040
:100090000C946C000C946C000C946C000C946C0030
:1000A0000C946C000C946C000C946C000C946C0020
:1000B0000C946C0011241FBECFEFD8E0DEBFCDBF83
:1000C00021E0A0E0B1E001C01D92A130B207E1F74C
:1000D0000E94BF010C94CE010C940000CF9382E7E4
:1000E0000E94D6008CE90E94060183E70E94D60098
:1000F0000E941801C82F0E94FD0082E70E94D600CE
:1001000085EE0E9406010E94FD00CF3F11F40E947F
:10011000C70080E0CF91089521988AB18DB1299AC6
:100120005C9A709A80E008950E948C0080E28AB9FF
:1001300080E88AB980E48AB95D9A5F9A5E9A84B150
:100140008A7F84B985B1856085B93A98429A80E002
:1001500008956A9A729A80E00895739A419A83EC9E
:1001600099E00197F1F700C000004198409873981A
:1001700080E00895739A409A83EC99E00197F1F733
:1001800000C0000040984198739880E008955D9801
:1001900080E0089543982FE986E891E0215080405F
:1001A0009040E1F700C00000439A089594EA9093CC
:1001B000BC00ECEBF0E090819923ECF79091B90052
:1001C000987F983011F09031A1F48093BB0084E8BF
:1001D0008093BC00ECEBF0E080818823ECF79091F9
:1001E000B900987F983139F081E0903429F480E0AB
:1001F000089581E0089580E0089584E98093BC002B
:10020000ECEBF0E0808184FDFDCF08958093BB008E
:1002100084E88093BC00ECEBF0E080818823ECF76D
:100220009091B900987F81E0983209F480E00895B8
:1002300084E88093BC00ECEBF0E080818823ECF74D
:100240008091BB0008951F920F920FB60F92112458
:100250002F933F934F935F936F937F938F939F93CE
:10026000AF93BF93EF93FF9381E0809300010E94CF
:10027000AD000E946E0082E70E94D60085EE0E94CB
:1002800006010E94FD00FF91EF91BF91AF919F91F8
:100290008F917F916F915F914F913F912F910F902F
:1002A0000FBE0F901F9018951F920F920FB60F92CE
:1002B00011242F933F934F935F936F937F938F936B
:1002C0009F93AF93BF93EF93FF93329915C00E9412
:1002D000AD002FE986E891E0215080409040E1F7A1
:1002E00000C000000E94BA0087E893E10197F1F78F
:1002F00000C000000E94C700FF91EF91BF91AF9135
:100300009F918F917F916F915F914F913F912F912D
:100310000F900FBE0F901F9018951F920F920FB65F
:100320000F9211240F900FBE0F901F9018951F92DF
:100330000F920FB60F9211242F933F934F935F9319
:100340006F937F938F939F93AF93BF93EF93FF939D
:100350000E94BA00109200010E94C700FF91EF9125
:10036000BF91AF919F918F917F916F915F914F91CD
:100370003F912F910F900FBE0F901F9018950E94E4
:100380009400579A569A559A8BB1806E8BB90E94F9
:10039000A9000E94C7000E94CA00FBCFF894FFCFBB
:00000001FF
