S01200004E6562756C6120302E312E737265630C
S11300000C945A000C946C000C946C000C946C00CE
S11300100C9410010C946C000C946C000C946C0007
S11300200C946C000C946C000C946C000C946C009C
S11300300C946C000C946C000C946C000C946C008C
S11300400C946C000C946C000C946C000C946C007C
S11300500C946C000C946C000C946C000C946C006C
S11300600C946C000C946C000C946C000C946C005C
S11300700C946C000C946C000C946C000C946C004C
S11300800C946C000C946C000C946C000C946C003C
S11300900C946C000C946C000C946C000C946C002C
S11300A00C946C000C946C000C946C000C946C001C
S11300B00C946C0011241FBECFEFD8E0DEBFCDBF7F
S11300C021E0A0E0B1E001C01D92A130B207E1F748
S11300D00E9448010C946A010C9400008AB18C7F40
S11300E08AB980E00895299A83B182FB882780F930
S11300F008955E982FE681E191E021508040904080
S1130100E1F700C000005E9A5E982FE681E191E07D
S1130110215080409040E1F700C000005E9A80E0EA
S113012008950E946E005598579856985D9A5F9A64
S11301305E9A20983A98429A80E00895CF93DF938C
S11301400E94730080930001189902C05D9A0DC04B
S113015093B19170C92F90E0D92F90E08C239D2307
S1130160892B11F05D9A01C05D9880E0DF91CF91F9
S113017008951092B90084E08093B80084EA8093D3
S1130180BC0080E0089594EA9093BC00ECEBF0E0AE
S113019090819923ECF79091B900987F983011F0F1
S11301A09031A1F48093BB0084E88093BC00ECEB15
S11301B0F0E080818823ECF79091B900987F983122
S11301C039F081E0903429F480E0089581E00895C5
S11301D080E0089584E98093BC00ECEBF0E080813A
S11301E084FDFDCF08958093BB0084E88093BC0018
S11301F0ECEBF0E080818823ECF79091B900987FD4
S113020081E0983209F480E0089584E88093BC008A
S1130210ECEBF0E080818823ECF78091BB0008953B
S11302201F920F920FB60F9211242F933F934F9367
S11302305F936F937F938F939F93AF93BF93EF934A
S1130240FF930E9479000E949E00FF91EF91BF915D
S1130250AF919F918F917F916F915F914F913F915A
S11302602F910F900FBE0F901F9018951092800041
S113027025E02093810010928500109284009093D1
S113028089008093880081E080936F0080E0089566
S11302900E94910080E090E00E943601509A1BB8C1
S11302A00E94B90086E20E9459010E945D01589A99
S11302B0FECF0E94C30080E0089582E90E94F3000B
S11302C087E20E94C3000E9405010E94EA00809117
S10B02D0BB000895F894FFCF70
S9030000FC
