S01200004E6562756C6120302E312E737265630C
S11300000C9434000C94EF000C94C4000C9446003F
S11300100C9446000C9446000C9446000C94460044
S11300200C9446000C9446000C9446000C94460034
S11300300C9446000C9446000C9446000C94460024
S11300400C9446000C9446000C9446000C94460014
S11300500C9446000C9446000C9446000C94460004
S11300600C9446000C94460011241FBECFEFD8E038
S1130070DEBFCDBF21E0A0E0B1E001C01D92A03001
S1130080B207E1F70E94FB000C9403010C940000FA
S11300900E94770080E00895CF93C62F0E949E00AF
S11300A08C2F0E949E0080E0CF9108950E949E00B4
S11300B083E70E949E000E94B000089582E70E9498
S11300C0480065E280E80E944C0060E48CE80E94ED
S11300D04C006AEF8BE80E944C0065E089E80E94BE
S11300E04C0064E58EE80E944C0080E0089594EA98
S11300F09093BC00ECEBF0E090819923ECF79091A5
S1130100B900987F983011F09031A1F48093BB002E
S113011084E88093BC00ECEBF0E080818823ECF76A
S11301209091B900987F983139F081E0903429F4A6
S113013080E0089581E0089580E008958093BB00F5
S113014084E88093BC00ECEBF0E080818823ECF73A
S11301509091B900987F81E0983209F480E0089585
S113016084E88093BC00ECEBF0E080818823ECF71A
S11301708091BB00089553985B9AE9E6F0E0808192
S11301808083E99A80E008951F920F920FB60F9230
S113019011242F933F934F935F936F937F938F9388
S11301A09F93AF93BF93EF93FF93F89482E70E94DA
S11301B0480082E90E94560088B97894FF91EF9133
S11301C0BF91AF919F918F917F916F915F914F916B
S11301D03F912F910F900FBE0F901F9018951F9273
S11301E00F920FB60F9211242A9878940F900FBE95
S11301F00F901F9018950E94BB000E945E00789497
S10D020080E090E00895F894FFCF29
S9030000FC
